:400000000080002011000000450400004504000008B5044B1A6803F53F5302331A6000F031FA00BFFA46004010B5054C237833B9044B13B10448AFF300800123237010BDBA
:400040004881FF1F0000000030190000084B10B51BB108490848AFF300800848036803B910BD074B002BFBD0BDE81040184700BF000000004C81FF1F30190000C880FF1F70
:400080000000000008B5064B1B78DBB2012B05D1044800F069FF0022014B1A7008BD00BFA081FF1F8081FF1F08B562B600F092FE00F0EEFE00F080FC124800F08FFF1248C3
:4000C00000F0B4FF0022114B1A7000F089FC00F01BFF0F4800F048FF0E4B1B7813F0FF0F09D10D4800F040FF4FF47A7000F026FE01E0FFF7C7FF074B1B7813F0FF0FF8D150
:40010000EAE700BF1D01000079010000A081FF1F34190000A181FF1F5419000008B500F073FE00F0CDFC0F4B1860002801DA00221A600C4B1B68B3F5803F03DB4FF6FF7241
:40014000084B1A60074B186800F0A8FC0246064B18600649064800F0C7FF0122054B1A7008BD00BFAC81FF1FA881FF1F5C1900008081FF1FA081FF1F08B500F0D3FE034B36
:40018000187010B10122024B1A7008BDA481FF1FA181FF1FFEE700BFF0B40022174611E050F82760F3B226F0FF0608E001EB420511F812406D78A5550132013BDBB2002BF1
:4001C000F4D10137192FEBD9F0BC70470A4B1B78DBB203F00701094A11701B09013213708023A2F26272137002F6F31213704422034B1A70704700BFCF0100496E58004094
:400200007658004008B50A46002100F064FF08BD08B500F055FF08BD38B50024314B1C80502202331A70192502331D8018232E4A137045F6BF510232118002321370042217
:400240002A492B48FFF7E4FF02222A4B1A7008224FF040231A70032103F500731970264B1B78DBB225490B70254B1A8041F25122023B1A800CE0234B1B7803F0010343EA1C
:40028000440404F003044FF4F07000F0DDFE013D0DB1032CEFD115B90320FFF77BFF1A4B4FF480721A8007221A70002217490A704820023108701A700222033B1A700422AF
:4002C0000A331A70124A137843F007031370013A137843F001031370013A137843F08003137038BD804000408640004058040048004100400043004008010049A1460040F5
:4003000022420040254200400440004006400040A2430040012807D8044B53F820201844017A13780B431370704700BF70190000012808D8044B53F820201844017A1378EA
:4003400023EA0103137070477019000038B572B62C4A137843F00403137000240BE02A4863001A19510001440A46098AD068FFF749FF0134E4B2082CF1D924494FF090408B
:40038000FFF70AFF0A25224B1D70224A137843F0020313701032137843F0020313701E4C237843F040032370A2F58632513A137843F010031370082218491948FFF728FF96
:4003C000082218491848FFF723FF2A4617491848FFF71EFF174A137843F008031370164D61232B70FFF718FF81232B700122134B1A70FFF7EBFE0E2221461148FFF708FF65
:4004000038BD00BFE846004070190000680000488358004003500140A04300403C0400480251004044040048125100404C040048205100402243004000480040040008407F
:40044000B043004008B500F00FFE03680C2B00D1FEE7FEE708B5094B1A681044084BC31A802B02DC054B186005E000F0FDFD0C2303604FF0FF32104608BD00BFCC80FF1FD5
:40048000B881FF1F08B5104E104D16E029686B68AC68002204E051F8040B43F8040B0432A242F8D1E868002203E0002143F8041B04328242F9D11035013E002EE6D100F087
:4004C000D9FDFFF7F1FDFEE7010000000C1A000008B5104A104B1A60104A136843F40073136000230AE0032B03D80D4A52F8231000E00C490C4A42F8231001332F2BF2D91D
:400500000A4B1A780A4B1A70074A0A4B1A60FFF71DFF08BD0004FA050CED00E014ED00E000000000450400000080FF1FBC760040C080FF1F08ED00E038B59DF810506C1E49
:40054000E4B2012C51D8013809282ED8DFE800F0052D2D052D2D0F192D230F2B03D92548007840B222E02448007840B21EE00F2B03D92248007840B218E02148007840B2BA
:4005800014E00F2B03D91F48007840B20EE01E48007840B20AE00F2B03D91C48007840B204E01B48007840B200E0002001EB401101FB02F1C90B8AB20D2B0BD8C3F10E0208
:4005C00089B211418AB2691E124800EB810101338B7005E06B1E0F4901EB83030F219970013D0C4B23F8252038BD002000F0A4FB38BD00BF180100491C01004919010049CC
:400600001D0100491A0100491E0100491B0100491F0100496481FF1FF8B5074600F01CFD06460D4D2B7843F003032B700B4C237843F0030323700A4B1F70032000F094FB52
:400640002B7803F0FC032B70237803F0FC032370304600F005FDF8BDF8460040F946004092580040F8B504460022614B1A7201285DD138225F4B1A70042202331A700622A3
:4006800001331A70002501331D7001331D703F2201331A7002331D7001331D7001331D7001260A331E70502203F527631A700A2201331A702C2201331A7001331D704422E5
:4006C00003331A70482201331A7001331E7002331E70112201331A70192201331A70972201331A705220FFF797FF5822424B1A7001331D70052705331F70022201331A7007
:4007000001331D7001331D70284600F001FA43F233323A4B1A603146384600F01DFA3146252000F09DFA36491D2000F027FB022C5DD138222F4B1A70042202331A70062271
:4007400001331A70002401331C7001331C703F2201331A7002331C7001331C7001331C7001250A331D70502203F527631A70272201331A702C2201331A7001331C705522FF
:4007800003331A705A2201331A70052601331E7002331D70112201331A70192201331A70972201331A704420FFF736FF5822124B1A7001331C7005331E70022201331A70D7
:4007C00001331C7001331C70204600F0A1F94FF47A420A4B1A602946304600F0BDF92946252000F03DFA07491D2000F0C7FAF8BD6481FF1F004E004094580040B081FF1F56
:40080000E90A0000ED0A0000F0B583B02D4D01272F702D4E00247472102000F08BF9102000F00CFA07211D2000F0BCFA0422274B1A7001331C7007331C70254A137843F086
:4008400018031370234B1C7003F2F5231C7001331C700A22A3F209331A7001331C7002331C705B2205331A705E2201331A7004331C701422A3F68C231A70009710234FF42A
:40088000004248F6F0510220FFF756FE0223009310234FF4004249F2DA012046FFF74CFE2B78013B06EB83039A780B4B1A702B78013B36F82320094B1A802878FFF7D2FEF3
:4008C00003B0F0BDD080FF1F6481FF1F96580040075B0040935800400E4E00400C4E004070B500F0B9FB06462A4B1B782A4B1A7842F001021A701A7842F010021A70103370
:400900001A7842F001021A701A7842F010021A70224D2B7843F002032B70214C237843F0020323701F4A137843F003031370032000F01AFA2B7803F0FD032B70237803F0B8
:40094000FD032370184A137843F0060313707A22164B1A70164A137843F0010313701032137843F0010313700F3A137843F0010313701032137843F0010313704FF00053DE
:400980000C4A1360A2F5C0721360304600F068FB70BD00BFD080FF1FAA430040F8460040F9460040915800407758004082580040A143004080E200E008B5084B9B7A4BB904
:4009C000064BDB7A13F0FF0F01D1FFF71DFF0122024B9A72FFF784FF08BD00BF6481FF1F024A137843F0010313707047004E0040024A137803F0FE0313707047004E004077
:400A0000094B1B7A13F0FF0F03D0074B5B7ADBB203E0064B1B7803F00103012B01D00028EED01846704700BF6481FF1F014E0040154B1B7803F00303012B07D8134B188839
:400A4000023B1B889BB243EA004013E0022B0AD10E4B1888023B1B7843EA00430C4A107843EA002006E00B4B188883B2074A108843EA0040084B1B7A13F0FF0F02D0002229
:400A8000054B5A72704700BF144E0040124E0040114E0040104E00406481FF1F064BDB68C01A4FF47A7303FB00F0044B1B6890FBF3F000B2704700BF6481FF1FB081FF1FDC
:400AC00010B5084A137843F004031370FFF788FF0020FFF795FFFFF7ABFF0446FFF788FF204610BD014E0040704700BF704700BF10B5002404E02046FFF71AFC0134E4B251
:400B0000012CF8D9FF22014B1A7010BDD180FF1F10B50446FFF7ECFF2046FFF7FBFB014B1C7010BDD180FF1F014B188880B2704780400040034B1A7800F0F80010431870B6
:400B4000704700BF82400040024B187800F00700704700BF8240004070B505460E46FFF7F3FF0446FFF7E0FFA84256D02B4B1B7803F0010294B900B185B938B9284B1D809A
:400B8000284A137803F0BF03137070BD254A137843F040031370224B1D8070BD22B3002321490B7001240F310C7004310B700C390B7803F07F030B701A4B1B7813F0080F71
:400BC00000D08DB9194B18800721013B1970164B1B7813F0010FFAD110490B7803F0FE030B700021104B19700C4B1B7813F0010F0DD00E4B1D800EB1032200E001220A4BC8
:400C00001A70094B1B7813F0010FFAD170BD044B1D8002490B7813430B7070BDA243004080400040824000400140004002400040014B188880B2704700410040034B1A7820
:400C400000F0F80010431870704700BF02410040024B187800F00700704700BF0241004070B505460E46FFF7F3FF0446FFF7E0FFA84256D02B4B1B7803F0010294B900B113
:400C800085B938B9284B1D80284A137803F0BF03137070BD254A137843F040031370224B1D8070BD22B3002321490B70012413310C7004390B7008390B7803F07F030B703B
:400CC0001A4B1B7813F0080F00D08DB9194B18800721013B1970164B1B7813F0010FFAD110490B7803F0FE030B700021104B19700C4B1B7813F0010F0DD00E4B1D800EB132
:400D0000032200E001220A4B1A70094B1B7813F0010FFAD170BD044B1D8002490B7813430B7070BDA14300400041004002410040014000400240004001BE704710B5044652
:400D400005E0084B186800F07FF9A4F50044B4F5004FF6D8034B586800FB04F000F074F910BD00BFD480FF1F08B5034B1B7A00FB03F000F069F908BDD480FF1F70B50446D2
:400D80000E46074B1D681F2802D90020FFF7D4FF04F01F04103455F8240045F8246070BD08ED00E038B504460D46072902D90020FFF7C2FF1F2C02D90020FFF7BDFF04F016
:400DC0001F0000F1604000F564406D01EDB2057038BD00BF084A137843F0010313701032137843F00103137002F64D32137843F001031370704700BFA3430040014B18702A
:400E0000704700BF034F0040014B1878704700BF034F0040014B1880704700BF044F0040014B1880704700BF064F004008B5154A137803F0010313700232137803F0FC0318
:400E40001370114B1A7802F0CF021A701A7842F030021A701A7802F0F0021A701A7842F00F021A70094A137843F0010313700920FFF7D0FF0920FFF7D3FF0020FFF7BEFF8B
:400E800008BD00BF004F00400B4F0040014F004008B5054B1B7823B9FFF7C8FF0122024B1A70FFF797FF08BD7481FF1F7222074B1A702022043B1A700622603B1A7047222D
:400EC00010331A70002252331A7070478E64004010B500F0C1F804460A4A137843F020031370043A137843F0100313700232137843F01003137000F049F8204600F0B0F852
:400F000010BD00BF9E64004008B5054B1B7823B9FFF7CCFF0122024B1A70FFF7D9FF08BD7581FF1F084B1B78DBB213F0200F06D0064A1078C0B213F01E0F02D17047002066
:400F400070470020704700BF6A6400404D640040034B1B7813F0040FFAD1024B187070476C6400404C64004038B5074B1B782BB938BDFFF7EDFF0134A4B201E0054600246F
:400F8000285D0028F5D138BD7581FF1F054A137843F0020313701032137843F002031370704700BFA2430040014B1B685864704708ED00E04001C0B2014B1870704700BFE9
:400FC00001E400E00222014B1A60704700E100E00222014B1A60704780E100E010B50446FFF7F6FF2046FFF7DFFF0720FFF7E2FFFFF7E8FF10BD00BF014B1B68186470474B
:4010000008ED00E04001C0B2014B1870704700BF00E400E00122014B1A60704700E100E00122014B1A60704780E100E010B50446FFF7F6FF2046FFF7DFFF0720FFF7E2FFA6
:40104000FFF7E8FF10BD00BF0230800803D000BF01380046FCD17047EFF3108072B6704780F31088704700BF014B1868704700BF4481FF1F0E4B70B51E460E4C0025E41A62
:40108000A410A54204D056F8253098470135F8E700F0AAFC084B094C1E46E41AA4100025A54204D056F8253098470135F8E770BDF4190000F4190000F4190000FC190000F6
:4010C00010B5431E0A44914204D011F8014B03F8014FF8E710BD03460244934202D003F8011BFAE7704700000EB400B54FF402719CB0ADF814106FF00041049107914FF650
:40110000FF711DAB02900690084853F8042BADF81610006802A9019300F064F8029B00221A701CB05DF804EB03B070474481FF1F2DE9F0478E6882469E420C46914698462F
:401140003ED88A8912F4906F3AD02568096902236F1A656905EB450595FBF3F57B1C43449D4238BF1D4653050FD5294600F040FB064698B13A462169FFF7A2FFA38923F464
:40118000906343F08003A38113E02A4600F08EFB064670B92169504600F0DEFA0C23CAF80030A3894FF0FF3043F04003A381BDE8F08726613E44266046466561ED1BA560CA
:4011C000464528BF464649463246206800F0A8FAA36800209B1BA36023681E442660BDE8F08700002DE9F04F9DB003938B8980461C060D4616460DD50B695BB9402100F0BF
:40120000F7FA2860286118B90C23C8F80030CDE040236B610023099320238DF82930DFF89CB130238DF82A3037463C4614F8013B1BB9B7EB060910D003E0252BF9D0274695
:40124000F3E74B46324629464046FFF771FF013000F0A780099B4B4409933B78002B00F0A08000234FF0FF3204930793059206938DF853301A930126052221784E4800F015
:4012800041FA671C049B38B14B4A3C46801A06FA00F018430490EFE7D90644BF20228DF853201A0744BF2B228DF8532022782A2A03D0079A00210A200BE0039A111D126820
:4012C0000391002A10DA524243F00200079204900BE027463B780134303B092B03D800FB02320121F5E701B107923B782E2B1ED17B782A2B0AD1039B02371A1D1B680392DA
:40130000002BB8BF4FF0FF33059310E0002319460593781C0A2407463A780130303A092A03D804FB01210123F5E703B1059103223978224800F0E6F940B14023CBEB00000A
:4013400003FA00F0049B013718430490397806221B487E1C8DF8281000F0D4F988B1194B33B9039B073323F007030833039314E003AB00932A46144B04A94046AFF30080C2
:4013800007E003AB00932A460F4B04A9404600F093F8B0F1FF3F824603D0099B5344099342E7AB895B0601D4099801E04FF0FF301DB0BDE8F08F00BFB4190000BA19000069
:4013C000BE19000000000000311100002DE9F04791461F460A698B6806469342B8BF1346C9F8003091F843200C46DDF8208012B10133C9F800302368990642BFD9F800303C
:401400000233C9F80030256815F0060510D104F1190A07E00123524639463046C04701301AD00135E368D9F800209B1A9D42F1DB94F843302268003318BF012392060FD531
:40144000E118302081F843005A1C94F845102244023382F8431003E04FF0FF30BDE8F08704F1430239463046C0470130F4D02268D9F80050E36802F00602042A08BF5D1BB3
:401480002269A3680CBF25EAE57500259342C4BF9B1AED184FF000091A344D4509D00123224639463046C0470130D5D009F10109F3E70020BDE8F0872DE9F04317460A7E84
:4014C00085B06E2A984606460C460C9B01F1430E00F0AE8011D8632A22D009D8002A00F0BB80582A40F0CA8081F84520834955E0642A1ED0692A1CD0C0E0732A00F0B080CA
:4015000009D86F2A2ED0702A40F0B8800A6842F020020A603EE0752A24D0782A3AD0ADE01A6801F14205111D1960136884F84230A8E021681A6811F0800F02D0111D1960B0
:4015400008E011F0400F02F10401196002D0B2F9003000E01368002B3CDA2D225B4284F8432037E021681A6811F0800F02D0111D196007E011F0400F02F10401196001D00A
:40158000138800E01368227E5C496F2A14BF0A2208221BE078225A4984F845202268186812F0800F00F104051D6003D1550601D5038800E00368D00744BF42F02002226078
:4015C0001BB9226822F0200222601022002084F8430001E049490A226568002DA56008DB206820F0040020602BB9002D7DD175460CE0002B79D07546B3FBF2F002FB103324
:40160000CB5C05F8013D03460028F5D1082A0BD12368DA0708D5236962689A42DEBF302305F8013C05F1FF35C5EB0E0323612EE008681A6810F0800F496903D0101D186036
:40164000136808E010F0400F02F104001860136801D0198000E0196000232361754616E01A68111D1960156800216268284600F049F808B1401B6060636804E004F14205C4
:4016800084F8422001232361002384F84330CDF800803B4603AA21463046FFF797FE013002D14FF0FF3026E023692A4639463046C0470130F5D023689B0710D5002504F125
:4016C000190907E001234A4639463046C0470130E7D00135E368039A9B1A9D42F2DBE068039B9842B8BF184605E00B7804F1420584F842308AE705B0BDE8F083C519000087
:40170000D619000010B5C9B202449042034605D01C7801308C42F8D1184610BD002010BD884210B501EB020301D8421E0BE09842FBD28118D21AD34204D013F8014D01F8C5
:40174000014DF8E710BD994204D011F8014B02F8014FF8E710BD000038B50546002944D051F8043C0C1F002BB8BFE41800F0D4F81E4A1368114613B96360146030E0A342C0
:401780000DD92268A018834201BF18685B681218226063600C6023E0A24203D813465A68002AF9D118681918A1420BD12168014458188242196013D11068526801441960CE
:4017C0005A600DE002D90C232B6009E021686018824201BF106852680918216062605C602846BDE8384000F098B838BD7C81FF1F70B5CD1C25F0030508350C2D38BF0C2549
:40180000002D064601DBA94202D90C23336046E000F082F8234B1C681A462146A1B10B685B1B0ED40B2B03D90B60CC18CD501EE08C420BBF63684B681360636018BF0C4674
:4018400015E00C464968E9E7174C23681BB9304600F052F820602946304600F04DF8431C18D0C41C24F00304A0420DD12560304600F053F804F10B00231D20F00700C31A28
:401880000ED05A42E25070BD211A304600F034F80130EBD10C233360304600F03EF8002070BD00BF7C81FF1F7881FF1FF8B5074615460E4621B91146BDE8F840FFF798BFF5
:4018C0001AB9FFF749FF2846F8BD00F027F885420ED929463846FFF78BFF044650B131462A46FFF7EDFB31463846FFF735FF01E03046F8BD2046F8BD38B5064C0023054687
:4019000008462360FEF7A6FD431C02D1236803B12B6038BDB481FF1F7047704751F8040C0028BEBF091851F8043CC01804387047000000005541525420426C756554686F0A
:401940006F74204D6F64756C652048432D30360D0A00000052454144590D0A0053616D706C653A20256C64206D560D0A00000000035B00402443004040000000004F00405E
:401980000C00305100404000C05100401000F0510040100000000140001000140140000800400140000A004C014000020050014020004300232D302B2000686C4C006566B6
:4019C00067454647003031323334353637383941424344454600303132333435363738396162636465660000F8B500BFF8BC08BC9E4670474D000000D1040000F8B500BF9D
:401A0000F8BC08BC9E46704729000000201A0000C880FF1F80000000700000000000000000000000B881FF1F01FF00000000E02EC05D00001800000000366E01000000009B
:401A400000000000000000000000000000000000000000000000000000000000B219000000000000000000000000000000000000000000000000000000000000000000009B
:401A800000000000000000000000000000000000000000000000000000000000E480FF1F0000000000000000000000000000000000000000000000000000000000000000A4
:401AC00000000000000000000000000000000000000000000000000000000000000000000000000000000000000000000000000000000000000000000000000000000000E6
:401B000000000000000000000000000000000000000000000000000000000000000000000000000000000000000000000000000000000000000000000000000000000000A5
:401B40000000000000000000000000000000000000000000000000000000000000000000000000000000000000000000000000000000000000000000000000000000000065
:401B80000000000000000000000000000000000000000000000000000000000000000000000000000000000000000000000000000000000000000000000000000000000025
:020000040003F7
:0200000480007A
:40000000024F004001520040036400400105014001090140580A0140490B01405B0C01403E0D0140420E0140310F01400217014004180140041901400340014002410140C8
:4000400006420140024301400244014005450140074601400247014006480140034C0140035001400151014001200A2714108A388C0F8E72E601B0210104020C050806034D
:4000800009080C0C0D080E0310101220140115031606180119031A0E1E08202021022210243027012830300F310433033430370839083A023F054003460449FF4A074BFFEC
:4000C0004C404D204EF04F05500854185604580459045A045B045C115D115F01604061A862406320801C8202880C89068A118B088C1091149203932894109526960C971826
:40010000981499269B089C099E109F10A101A940AB0AB01FB160B31EB501B902BB08BF10D804D904DC11DF0100400220034004800511080209A80D080E420F08104011144A
:40014000184019011A081E401F0120022105230125082605274829052D022F04311835113604374039543B023F20410449044A204B08504051805A02608463028080850166
:40018000900491549202948096089709984299129C209D019F48A120A315A508A604B040B204B402B580C0DDC2FFC40ECAA3CCF6CE2FD002D601D80DE40206010A020B01CA
:4001C0000E0413011501160A19011A061C01200C2202260128012B012E0C31013201340E38083A203F014036410245EB46C0480B49FF4AFF4BFF4EF04F44500C54015804CA
:4002000059045A045B045C015D115F0166C06A406B028507860189078A0192029504971199019B0EA202AD02AF31B002B120B401B507B718BE11BF40C053C106C204C401CD
:40024000C5CEC803C9FFCAFFCBFFCC62CDA0CEF0CF41D00CD804D904DA04DC10DD01DF01E640E702E910EA30EB10ED10EE10EF1202200308048005240A400D280E0210802D
:4002800015081608174118041B011D301F08200122102340278028022D202F043010321435113604370139143E103F20402142604528488449804A214D224F0857105D02C4
:4002C0005E105F88915C9242974199849A089C529E20A004A580B002B104C0E6C2E8C4F8CA28CCE6CE26D06BD22CD6F00110041F0508080F0A100B630C130E0C0F04100195
:40030000111C1362140C15181803197F1C021D242008214024042560281C291C2A032B612D672E132F18301C3160331F360F3A803B0856025710580459045B045C115D1006
:400340005F0184068C018E0694069501960198069A019E01A004A402A501A807A901AD01B101B207BA28BF01D804D904DC01DF0100080180030805800720085209080E1888
:400380000F011001120813061608170A19801A401C081D041E101F28210422092740285029802B082D802E082F28300231883320360C3A223B445B406401670169547108BF
:4003C0007202732EC0A7C2EFC47FCA7FCC4FCE0FD608EC10EE0838803E4058045F011D409D40AD40EC1832403680CC309680A680128082409680A680C410E6807140DC2088
:400400007C08DE01090152209C08C208D404450286209C08A620B501D001EA089C08A50227049F04AD40B704C820EE10AC08B502EC0800020C020E02000B00000000000096
:4004400000008000000B0B00000000000800100808000800000000002500180100000000000000000000000000000000000000000000000000000000000000000000000078
:40048000000000000000000000000000000000000000000000000000000000000000000000000000000000000000000000000000000000000000000000000000000000003C
:4004C00000000000000000000000000000000000000000000000000000000000000000000000000000000000000000000000000000000000000000000000000000000000FC
:4005000000000000000000000000000000000000000000000000000000000000000000000000000000000000000000000000000000000000000000000000000000000000BB
:40054000000000000000000000000000000000000000000000000000000000000000000000000000000000000000000000000000000000000000000000000000000000007B
:0200000490006A
:0400000000004005B7
:0200000490105A
:04000000BC90ACAF55
:0200000490303A
:02000000316F5E
:0200000490402A
:4000000000000000000000000000000000000000000000000000000000000000000000000000000000000000000000000000000000000000000000000000000000000000C0
:400040000000000000000000000000000000000000000000000000000000000000000000000000000000000000000000000000000000000000000000000000000000000080
:400080000000000000000000000000000000000000000000000000000000000000000000000000000000000000000000000000000000000000000000000000000000000040
:4000C0000000000000000000000000000000000000000000000000000000000000000000000000000000000000000000000000000000000000000000000000000000000000
:0200000490501A
:0C00000000012E16106900012E2041D8CE
:00000001FF